:100000000C94A4090C94C1090C94C1090C94A2315C
:100010000C94C1090C94C1090C94C1090C94C10938
:100020000C94C1090C94C1090C948F140C94AE1853
:100030000C949D270C94C1090C94C1090C94C1091E
:100040000C94C1090C94C1090C94C1090C94C10908
:100050000C94C1090C9477150C94C1090C94C10936
:100060000C94C1090C94C1090C94C1090C94C109E8
:100070000C94C1090C94C1090C94C1090C94C109D8
:100080000C94C1090C94C1090C94C1090C94C109C8
:100090000C94C1090C94C1090C94C1090C94C109B8
:1000A0000C94C1090C94C1090C94C1092C4128007D
:1000B0000000C1C1C2040810C03804030000A0221F
:1000C00024141212A02122121111837C41414040BC
:1000D0008282840810208080000000008070190651
:1000E000000080700C0300008000303000C08000F1
:1000F00030300000498808080800448404040000E7
:100100004080000000004040202020203CC201012F
:10011000020235018A7C000020408000000020217E
:10012000221211112020101010101EE100000101F8
:100130001CE20101020218648202020218608000BF
:10014000000018181B030040180605989984120B2C
:10015000080808081109080808081010D0110F2114
:10016000101010110F0110080804040410080402F4
:1001700002040C30408000000C0C0D01004008E827
:100180000807102408304080000008080807000015
:100190000808040202020804020101020505090917
:1001A00010100438408000000404080810100404F3
:1001B000040404040404020100000202818080009F
:1001C0000202040408080202020101010202010005
:1001D000000001E11A0609310101020408100100C2
:1001E00000000000008080000000008040402020CF
:1001F000000080804040000060600081000001013C
:10020000004000000000001800000000000C00008A
:1002100000000003000000000001000000000000DA
:100220003C34131E23162F333C09001101392103DE
:100230001B291D322D243C3C3C3C3C34131E231610
:100240002F333C090011013921031B291D322D24B4
:100250003C3C3C3C3C350E1F170F2B3C3C36050DFF
:10026000073818021A271D322D243C3C3C3C06342A
:10027000132620142F333C090011083921031B29B0
:100280001D322D243C3C3C3C3C34132528152F3397
:100290003C090011083921031B291D322D243C3C47
:1002A0003C3C0634132620142C333C0A3010081929
:1002B00004121B2A2E323C3C3C3C3C3C06341326A8
:1002C00020142C333C0A3111081904121B291C0B71
:1002D0003C3C3C3C3A3B0634132620142F333C0A6A
:1002E0003010083C37031B2A2E322D220C3C3C3C9C
:1002F00029001E001F002000210022002B001400F6
:100300001A00080015001700E0000400160007009E
:1003100009000A00E1001D001B000600190005008D
:100320000000E2002352E3002C412F002A002700A6
:1003300026002500240023002D00130012000C00CD
:1003400018001C00340033000F000E000D000B00DD
:10035000E50038003700360010001100000025527B
:100360002752225228003000290035021F022002A5
:10037000220201001E0214021A02080215021702CC
:100380002B0004021602070209020A02E1001D0204
:100390001B020602190205020000E2002352E300DC
:1003A0002C002F002A000100310031022402230218
:1003B0003402130212020C0218021C02340033022F
:1003C0000F020E020D020B02E5002502330233007C
:1003D000100211020000255227522252280030003C
:1003E00001000100010001000100010035003100A1
:1003F0002102507E517E0100527E2E002D004C7E47
:100400004D7E537E0100010001004E7E4F7E2E0284
:100410000000E2002352E3002C0001000100010073
:1004200001000100010001000100010001000100C4
:1004300001000100010001005200220231002302EC
:1004400001000100010001002D0201000000255201
:1004500027522252280001000100407E417E427E48
:10046000437E010001000100520001000100010073
:10047000E100500051004F0021022202E000010083
:1004800001000100010001000000E2002352E3002E
:100490002C00010001000100477E467E457E447E1F
:1004A00001004B7E4A7E497E5200487E270226028A
:1004B00001004F0051005000310230022F022E0285
:1004C0002D02000000002552275222522800010070
:1004D00035001E001F00200021002200E1003A002C
:1004E0003B003C003D003E00E1003B003C003D0085
:1004F0003E003F00E0004100420043004400450050
:100500000000E200E34201002C000100450027004A
:100510002600250024002300000000002300220004
:1005200021003F0000004F00520051005000000029
:10053000310030002F002E002D002E020000255229
:10054000010001002800010035003A003B003C009A
:100550003D003E000100010001000100010001001A
:1005600001000100547E01000100010001000100B2
:1005700001000100010001000000E2002352E3003D
:100580002C000100440043004200410040003F00B5
:10059000A900AA00AE00AB00AC00010001004800B9
:1005A00047000100010001000100010001000100FD
:1005B00001000100000025522752225228000100AC
:1005C0000052010001000100010001005B7E0100FA
:1005D0000100567E010001000100557E010001006E
:1005E0000100010001000100010001000100010003
:1005F0000000E2002352E3002C0001000100010092
:1006000001000100010001005C7E0100587E577E60
:10061000597E0100010001000100010001000100FC
:10062000010001000100010001005A7E0000255276
:1006300027522252280001000100010001000100A0
:100640000100010001000100D900CD00DA00010025
:1006500001000100CF00CE00D00001000100010028
:1006600001000100010001000000E2002352E3004C
:100670002C00010001000100010001000100010047
:1006800001000100D200D300D10001000100DC0014
:10069000D900DA00DB0001000100010001000100C7
:1006A00001000100000025522752225228000100BB
:1006B00000DA0281FFD9F1DB20A4A62EAF00A0C092
:1006C000D30000A1C8D30000AED580A81F408D1470
:1006D00020000000000000000000000000000000FA
:1006E000000000000000000000000000000000000A
:1006F00000000000808000000000000000000000FA
:1007000000000000000000000000000000000000E9
:100710000000000000000000000000000070F82051
:10072000202020202020A000000000000000000069
:1007300000000000000000000000000000000000B9
:1007400000000000000000000000000000000000A9
:100750000000000000000000000000000000000099
:10076000000000000000000000000020206060C0C9
:10077000C0C0C0C0400181C3E3F3FFFEFEFEFEFF28
:10078000F3E3C38181C0C00000000000000000004E
:10079000000000000000000000000000009B9BDA49
:1007A000525B5B4A42DB9B000000809692921252A1
:1007B000D252525F1B000000000000000000000049
:1007C0000000000000000000000000000000000029
:1007D0000000000000000000000000000000000019
:1007E0000000000000000000000000000000000009
:1007F00000010103183C3D7D7DCDCDCDFDFDFDFD0E
:100800007D7DF97B3B00000000000000000000003F
:100810000000000000000000000000000005555529
:10082000555D5D4D05455500000010B8B8A1B09963
:10083000D989B9B9100000000000000000000000D4
:1008400000000000000000000000000000000000A8
:100850000000000000000000000000000000000098
:100860000000000000000000000000000000000088
:100870000000000000000000000000000101010075
:100880000000000000000000000000000000000068
:100890000000000000000000000000000009090F37
:1008A0000F0F0909090909000000000000000000FD
:1008B0000000000000000000000000000000000038
:1008C0000000000000000000000000000000000028
:1008D000000000000000000000000000C0E0000078
:1008E0000000000000000000000000E0E0E0E0E0A8
:1008F000E0E0E0E0E0E0E0E00000000000000000F8
:10090000E0E0E0E000000000C0E0E0E0C000000047
:1009100000E0E0E0E0000000000000000000000057
:1009200000000000000000E0E0E0C0000000000067
:100930000000000000000080E0E0E0E000000000B7
:10094000000080E0E0E0E0E0E0E0E08000000000A7
:100950000000000080808080C0E0F0F0FFFFF8F031
:10096000F0C0C08080808000000000FFFFFFFF011A
:10097000000000000000FFFFFFFF0000000000007B
:10098000F0F0F0F000000000070F0F7F7FF0F0F0B4
:10099000F07F7F0F0F000000E0E0F0F0101010106B
:1009A000F0F0E0E0000000FFFFFFFF0000000000AB
:1009B0000000001C3C0F070FFFFFFFFF00000000BE
:1009C000FFFFFFFFFF80808080878F0F0F000000F8
:1009D000000000000101010103030F0FFFFF0F0FD3
:1009E0000703030101010100000000FFFFFFFF0FEB
:1009F0000E0E0E0E0E0E0F0F010100000000000083
:100A0000FFFFFFFF00000000F0F0F0FEFF0F0F0FF0
:100A10000FFEFEF0F0000000FFFFFFFF0C0C0C0CBF
:100A20008F8F8F8F000000FFFFFFFF80808080800E
:100A30008080800000000000FFFFFFFF000000003A
:100A4000FFFFFFFFFF01010101FFFFFFFE000000AC
:100A50000000000000000000000000000303000090
:100A6000000000000000000000000003030303007A
:100A70000000000000000000000000000000000076
:100A8000030303030000000003030303030000004B
:100A9000000303030300000001010303020202023A
:100AA0000303010100000003030303030303030323
:100AB0000303030000000000030303030000000021
:100AC000000101030302020202030301010000000E
:100AD0000000FFFF0101010101010101010101010C
:100AE000010181C1C1E1E1C18181C1E1E1C1C181F6
:100AF00001010101010101010101010101010101E6
:100B000001010101010101010101010101010101D5
:100B1000012131F1F1B1A1B1F1F1310101F1F1990D
:100B20009999F1F1010101010101010101010101A5
:100B3000010101010101010101010181C1C1E16165
:100B40003131313161C1C1818101010101010101F5
:100B5000FFFFFFFF000000000018B83CFCFCFCFC9D
:100B6000383033A7270F9FDFC3C3DF1F0F27A733FB
:100B70003038FCFCFCFC3C9818000000000101012E
:100B80000101010101010101010101010101010056
:100B90000048C86F2F0A0A0A6F2F0860601F1F04E1
:100BA00024643F3F00000001010101010101010136
:100BB00001010101010101000005056565643C3D7D
:100BC000656565656D3C3C6525050000000000001D
:100BD000FFFFFFFF000000000307070F0F0F0F0FBD
:100BE000E7F3F3F9F9F8F9FBC3C3FBF8F8F9F9F304
:100BF000E3E70F0F0F0F0F07030300000000FEFED7
:100C00000000007CFE8682C6C6440000FEFE101076
:100C100010FEFE000000FEFE00007CFE868292F6C2
:100C20007000007CFE868282FE7C0000000000FED8
:100C3000FEFE007CFCFE8282C6C44000FEFE301038
:100C400010FEFEFE0080FEFE9292928200000000E6
:100C5000FFFFFFFF80808080808080808080808098
:100C60008081818383838381808081838383838167
:100C70008180808080808080808080808080808073
:100C80008080808080808080808080808080808064
:100C90008080808080808080808080808080808054
:100CA0008080808080808080808080808080808044
:100CB0008080808080808080808080808080808034
:100CC0008080808080808080808080808080808024
:100CD000FFFF0000000000003E5B4F5B3E003E6BEC
:100CE0004F6B3E001C3E7C3E1C00183C7E3C1800B6
:100CF0001C577D571C001C5E7F5E1C0000183C18B2
:100D00000000FFE7C3E7FF00001824180000FFE71A
:100D1000DBE7FF0030483A060E0026297929260035
:100D2000407F05050700407F05253F005A3CE73C12
:100D30005A007F3E1C1C0800081C1C3E7F00142229
:100D40007F2214005F5F005F5F0006097F017F0064
:100D5000006689956A0060606060600094A2FFA2EE
:100D6000940008047E04080010207E20100008086B
:100D70002A1C0800081C2A0808001E101010100069
:100D80000C1E0C1E0C0030383E383000060E3E0E95
:100D9000060000000000000000005F0000000007E7
:100DA00000070000147F147F1400242A7F2A1200F9
:100DB00023130864620036495620500000080703D8
:100DC0000000001C224100000041221C00002A1CDF
:100DD0007F1C2A0008083E080800008070300000D0
:100DE00008080808080000006060000020100804DF
:100DF00002003E5149453E0000427F4000007249DA
:100E0000494946002141494D33001814127F100012
:100E10002745454539003C4A4949310041211109DE
:100E20000700364949493600464949291E00000055
:100E300014000000004034000000000814224100AB
:100E4000141414141400004122140800020159095A
:100E500006003E415D594E007C1211127C007F4914
:100E6000494936003E41414122007F4141413E0017
:100E70007F49494941007F09090901003E4141512B
:100E800073007F0808087F0000417F410000204078
:100E9000413F01007F08142241007F404040400054
:100EA0007F021C027F007F0408107F003E41414109
:100EB0003E007F09090906003E4151215E007F097D
:100EC0001929460026494949320003017F010300E0
:100ED0003F4040403F001F2040201F003F4038401F
:100EE0003F0063140814630003047804030061598D
:100EF000494D4300007F4141410002040810200099
:100F0000004141417F000402010204004040404092
:100F100040000003070800002054547840007F2858
:100F200044443800384444442800384444287F006E
:100F300038545454180000087E0902001824241C58
:100F400078007F080404780000447D4000002040C1
:100F5000403D00007F102844000000417F40000019
:100F60007C04780478007C08040478003844444405
:100F700038007C1824241800182424187C007C08CD
:100F80000404080048545454240004043F4424003A
:100F90003C4040207C001C2040201C003C40304055
:100FA0003C004428102844004C9090907C004464FD
:100FB000544C440000083641000000007700000057
:100FC0000041360800000201020402003C262326EC
:100FD0003C000000000000808080800000000000D5
:100FE00080E070180C1830E080000010F89010308D
:100FF000783010B8FC3810000000000000F8FCF851
:10100000000000000000000000000000001C9C1C0C
:1010100000000000F8FCF80000000000001CFCF8D4
:10102000C000000000000080E0F87C1C000000F020
:10103000FCFCFC1C1C1C1C1C1C1C1C0000000000DC
:1010400000C0F0F8381C1C1C1C1C1C3CF8F0E00014
:10105000E0F0F0F0E0ECEEF7F37020007C7C7C7EBA
:10106000007E7E7E7F7F7F000080C0E07E5B4F5BE6
:10107000FEC00000C000DCD7DEDEDED7DC00C00032
:101080000000000000000000000000000000000060
:10109000000000000000000FBCE08181818383829A
:1010A000870C183060C000001FFE90B9FFBB9198FC
:1010B0003C1811133F1100000000000000FFFFFF6B
:1010C00000000000000000000000000000FFFFFF23
:1010D00000000000FFFFFF00000000000000000310
:1010E0000F7FF8E080F0FC3F0F0100000000003FA0
:1010F0003F3F1C1C1C1C1C3C78F8F0E080000000EA
:1011000000C3E7FF7E3C3878787070F8FFDF870017
:101110000F1F3F7F7F7F7F7F3F1E0C001F1F1F3FE2
:10112000003F3F3F7F7F7F00307B7F783020203043
:10113000787F3B0003000F7F0F0F0F7F0F0003002E
:10114000000000000000000000000000000000009F
:101150000000183C24666341C181808080808080CB
:1011600081C14162386C4CC68181808080808081E1
:10117000C14362361C1800000000000000FFFFFFA2
:10118000C0C0C0C0C0C0C0C0C0800000007FFF7F22
:10119000000000007FFFFFC080000000E0E0C0C052
:1011A000C0E0F97F1F070000000000000000007091
:1011B000F0E0E0C0C0C0C0E0F0F87F3F0F000000EA
:1011C0000F3F7FF9E0E0C0C0C0C0C0E0F97F3F1F23
:1011D000000000000000000000000000000000000F
:1011E00000000000000000000000000000000000FF
:1011F00000000000000000000000000000000000EF
:1012000000000000000000000000000000000000DE
:10121000000000AF00AE05010902A101850209012D
:10122000A100050919012908150025019508750176
:1012300081020501093009311581257F9502750864
:10124000810609381581257F950175088106050CF1
:101250000A38021581257F950175088106C0C005F1
:10126000010980A101850319012AB700150126B7DC
:1012700000950175108100C0050C0901A1018504CC
:1012800019012AA002150126A002950175108100FE
:10129000C005010906A101050719E029E715002588
:1012A00001950875018102950175088101050719ED
:1012B0000029FF150026FF00950675088100050826
:1012C0001901290515002501950575019102950162
:1012D00075039101C009023B00020100A0FA090454
:1012E0000000010301010009211101000122440055
:1012F0000705810308000109040100010300000043
:10130000092111010001227B000705820320000151
:101310001201000200000008D8042DEB00010102B8
:1013200000010E034C0069006C00790035003800A4
:10133000000010036C0069006C00690075006D000E
:10134000730000000403090411241FBECFEFDAE08C
:10135000DEBFCDBF12E0A0E0B1E0E2EBFEE602C0EE
:1013600005900D92AC34B107D9F726E0ACE4B2E0B9
:1013700001C01D92A73BB207E1F70E94CE270C9453
:101380009B360C940000CF93DF932091B5063091EB
:10139000B606A901455B5440255B324021303240FE
:1013A000C0F020E032E0241B350B6091B304709153
:1013B000B404FC01CA01240F351FC1E0D0E082173C
:1013C000930750F07093B4046093B304DF91CF910E
:1013D000089520E032E0E9CF4491DC01AB54BB4FEB
:1013E0005C91451781F04C93AC01A5E0569547956B
:1013F000AA95E1F7DE0102C0AA0FBB1F4A95E2F7EA
:10140000AD016A2B752B01963196D9CF982FE091BB
:10141000B2044091690459E0E41302C080E00895E9
:101420002E2F30E05E9FF0011124E659FB4F8181A1
:10143000681306C08081981303C085818111EFCFA6
:10144000F9013196E770E8CFFC01AC014B5F5F4FCB
:101450008FEF91E32191822728E030E087FF09C0D8
:10146000880F892721503109C9F7E417F50791F74B
:101470000895880FF7CFE8EDF0E080818E7F8083BC
:101480001092E2001092DA001092E100A0EEB0E0BB
:101490008C9181608C9380818F77808319BCA7EDBC
:1014A000B0E08C918E7F8C9380818F7E80831092B0
:1014B000540408952091E4003091E50095E6A901D7
:1014C0002091EC00822F817020FF06C08091E800FF
:1014D00080FF06C080E008952091E80022FD1AC038
:1014E00080915F04882389F0853089F08091EB003A
:1014F00085FD0FC02091E4003091E50042175307AD
:10150000F9F29150E1F684E0089582E0089583E0D5
:10151000089581E008958091610487FF13C0809150
:10152000E80082FF06C08091E8008B778093E80096
:1015300004C080915F048111F2CF089580915F040F
:101540008823D9F38091E80080FFF8CF8091E800EC
:101550008E77ECCF982F9093E900242F762F50E0D0
:10156000891731F07091EC002091ED005091F0005E
:1015700021FD07C09F5F973071F78093E90081E0FC
:1015800008953091EB003E7F3093EB003091ED00F9
:101590003D7F3093ED003091EB0031603093EB00F4
:1015A0007093EC002093ED005093F0002091EE003A
:1015B00027FDE0CF80E00895B0E0A0E0E2EEFAE0A1
:1015C0000C94D132C8EDD0E088818F7E8883E7ED1E
:1015D000F0E080818160808384E082BF81E080933D
:1015E000540488818E7F888302EE10E0F801108217
:1015F0001092DA0081EEC82ED12CF601108288817B
:101600008F77888388818068888388818F7D8883AD
:1016100019BC10925F041092600410925E04109244
:101620005D0490EEE92EF12CF70180818B7F8083A1
:1016300088818160888342E060E080E08BDFF60192
:1016400080818E7F8083F8018081816080838081AA
:1016500088608083F70180818E7F808388818061AC
:101660008883CDB7DEB7E8E00C94ED32FC01CB0106
:1016700020916704309168042617370790F000978F
:1016800029F42091E8002E772093E80040E00097AD
:1016900051F4411108C08091E80082FF31C080E020
:1016A0000895C901F3CF20915F042223A9F12530C9
:1016B000A9F12091E80023FD2DC02091E80022FD32
:1016C000EACF2091E80020FFE2CF3091F300209193
:1016D000F200009719F02830310558F041E0283029
:1016E000310509F040E02091E8002E772093E800D2
:1016F000CECF41914093F10001972F5F3F4FE9CF4B
:1017000080915F04882341F0853041F08091E800AA
:1017100083FFC1CF81E0089582E0089583E00895BA
:101720000895A4E0B0E0E7E9FBE00C94D7328FB76E
:10173000F8942091500430915104409152045091FA
:10174000530429833A834B835C838FBF69817A81F9
:101750008B819C812496E2E00C94F33280913701D6
:1017600008959C01FC0132968FEF90E0419146175D
:1017700051F08F3F19F4411101C0892F9F5F9630BE
:10178000A9F78F3F09F40895280F311D87FD3A9579
:10179000F90162830895A3E0B0E0E1EDFBE00C9471
:1017A000D7329C0180914D0490914E04821793078B
:1017B000B1F030934E0420934D04E0914B04F0912E
:1017C0004C04309761F00084F185E02D309739F0BA
:1017D00084E089833B832A83CE0101960995239671
:1017E000E2E00C94F332A3E0B0E0E9EFFBE00C940C
:1017F000D7329C018091490490914A048217930743
:10180000B1F030934A0420934904E0914B04F091E5
:101810004C04309761F00084F185E02D309739F069
:1018200083E089833B832A83CE0101960995239621
:10183000E2E00C94F33280914704882369F0E09150
:101840004B04F0914C04309739F00190F081E02D79
:10185000309711F00995089580E00895809139043A
:1018600080FD16C081FD16C082FD16C0809138042F
:101870008823A1F0883280F428E0829FC0011124DF
:1018800068E270E00E940A33862F672B39F00895D2
:1018900082E0089584E0089588E0089581E0089545
:1018A0008091390480FD14C081FD14C082FD16C0F2
:1018B00080913704882381F08E3180F420E5829F67
:1018C000C00111246EE170E00E940A33862F089552
:1018D00084E1089588E2089588E0089580E50895F8
:1018E000282F35EB2303C001112497FF04C0805833
:1018F0009109892F089580589F4FFBCFAC013091FB
:10190000330460913404232F621301C00895822FA1
:1019100090E0FC01EE0FFF1FE55DFB4F0190F081B1
:10192000E02DE417F50781F4EEE2F1E0452B11F02C
:10193000F0E0E0E041E044832313E8CF01968370B8
:1019400099278093330408950196282F2370DCCFC4
:101950001092BF031092BE0380913301811104C025
:10196000109232011092340108953091B703831719
:10197000A0F590E0262F269526952695239F800D8D
:10198000911D1124811522E092073CF5FC01EB54D6
:10199000FB4F5081677021E030E001C0220F6A9553
:1019A000EAF74423D9F0252B2517B9F0208325E049
:1019B000969587952A95E1F721E030E002C0220F45
:1019C000331F8A95E2F78091B3049091B404822B7F
:1019D000932B9093B4048093B3040895209525230A
:1019E000E3CF80E00895F894E82FE295EF70F0E0FF
:1019F00041A18F7021E030E0B90102C0660F771F6E
:101A00008A95E2F7CB01962F9095942391A392A10A
:101A1000892B82A378940895A4E0B0E0E2E1FDE090
:101A20000C94D73280914704882369F07ADE698369
:101A30007A838B839C8369817A818B819C812496B4
:101A4000E2E00C94F3326DDE69837A838B839C83AE
:101A50008091CC029091CD02A091CE02B091CF02A4
:101A600029813A814B815C81280F391F4A1F5B1FF6
:101A700029833A834B835C83DECF9091DE0292FF11
:101A800010C041E0282F2471243009F040E031E0FB
:101A9000282F2871283009F030E0431711F02CE08E
:101AA000822793FF10C041E0282F2471243109F0D0
:101AB00040E031E0282F2871283109F030E0431749
:101AC00011F02CE082273091DF0230FF10C051E08E
:101AD000282F2171213009F050E041E0282F287192
:101AE000283009F040E0541711F029E0822731FF37
:101AF00010C041E0282F2171213109F040E031E090
:101B0000282F2871283109F030E0431711F029E01F
:101B1000822794FD877E0895803E9105C1F1C8F427
:101B20008133910509F47DC048F48932910509F4A7
:101B30006DC08A32910509F47BC0089589339105FF
:101B4000D1F082389105B9F08533910509F459C077
:101B50000895843E9105C1F138F4823E910521F14A
:101B6000833E910531F10895863E9105C1F1873E8E
:101B70009105E1F108952091DE02237009F065C01E
:101B80002091DF0223FF14C089E290E008952091A4
:101B9000DE0220FD43C03091DF0230FF09C024FF88
:101BA0004EC090E080E008952091DE0222FDF7CF44
:101BB00008952091DE0222FD45C03091DF0230FD04
:101BC00044C024FFF5CFEDCF2091DF0221FFF0CFFD
:101BD0008091DE0284FDE5CF87EE90E008952091AC
:101BE000DE0223FFE5CF24FDDCCFF6CF2091DE021D
:101BF00023FD2EC03091DF0231FFE3CF84EE90E071
:101C000008952091DE0225FFD3CFBECF2091DE02C2
:101C100025FD21C02091DF0223FFCACF89E390E098
:101C2000C7CF2091DE0226FFC3CF8AE290E008955D
:101C30002091DE0226FFBCCF81E390E0089583EE81
:101C400090E0089582EE90E0089580EE90E008958F
:101C500086EE90E0089585E390E008957A30B8F438
:101C60006630A8F48830B0F4E62FF0E096E0799F73
:101C7000E00DF11D11249CE3899FE00DF11D11245D
:101C8000EE0FFF1FE051FD4F85919491089580E084
:101C900090E0089581E0FCCF1F93CF93DF933CDF6A
:101CA000EC018115924508F05CC0C11580E5D807AC
:101CB00008F0D9C0C03ED10538F5CD3CD10508F0BB
:101CC000ABC0C83AD10580F4C53AD10508F0A1C02F
:101CD000C130D10509F440C0CE010497813A910585
:101CE000D8F1D0E0C0E038C0CE01885A91094B97B6
:101CF000C0F7C85AD0E0CC0FDD1FC150DE4F0990AD
:101D0000D881C02DD46428C0C11590E4D907E0F46F
:101D1000C11520E2D20708F0C0C0C83ED105E0F0EE
:101D2000CE019A9581159F41E0F68D2FA6DE182FE2
:101D3000CE019927F1DEC12FD0E0DC2FCC27CC27B4
:101D4000DF71C82BD92B08C0CE019927E5DECC273F
:101D5000DF70C82BD92BD06ACE01DF91CF911F91B4
:101D60000895C03882E5D807B8F5C03692E5D9079E
:101D700008F05BC0C03422E5D207C8F4C03282E567
:101D8000D80708F04BC02C2F2695269590E2299F66
:101D9000900111248C2F8370C1E0D0E002C0CC0FE1
:101DA000DD1F8A95E2F7C22BD32BDD68D5CF2C2F10
:101DB00026952695277080E2289F900111248C2F6C
:101DC0008370C1E0D0E002C0CC0FDD1F8A95E2F73E
:101DD000C22BD32BDC68C0CFC03C92E5D90760F49E
:101DE0008C2F8F71C03AD245A8F5C82FD0E0DC2FD8
:101DF000CC27C46FD06AB0CFCE01805C924580976B
:101E000008F06FCFDC2FCC27CC27DF71C06FD06AF2
:101E1000A3CFA497D064A0CFD0659ECFCF71D0E0E0
:101E2000DC2FCC27C16FD06A97CF2C2F2695269513
:101E3000277080E2289F900111248C2F8370C1E0CD
:101E4000D0E002C0CC0FDD1F8A95E2F7C22BD32B66
:101E5000DA6882CF12DEC82FD0E0DC2FCC27CC2767
:101E6000DF71D06279CF8C2F8F7107DE55E0D69568
:101E7000C7955A95E1F7CF70D0E0DC2FCC27282FFB
:101E800030E084FF06C044E0220F331F4A95E1F79B
:101E90003327C22BD32BD0695FCF8D2F8F71EDDD10
:101EA000182FCE01992738DEC12FD0E0DC2FCC27A8
:101EB000CC27DF71C82BD92BD4CF982F9095809148
:101EC000A70289238093A70208958091B20490917C
:101ED0006904981301C008958F5F8770FACFB0E04E
:101EE000A0E0E5E7FFE00C94D0328C01E0904003E5
:101EF000F09041038091DC029091DD02E82AF92AFA
:101F0000CFE0D0E0CC24C394D12CBC2EC6010C2E43
:101F100002C0880F991F0A94E2F78E219F21892B16
:101F200049F4219790F7B12C8B2DCDB7DEB7E9E0BE
:101F30000C94EC32B8018C2F91DEAEDE019789F360
:101F4000F3CFCF93DF93D82FC92FC9DF6D2F7C2F0D
:101F500085DEA2DEDF91CF9108959A3078F5863044
:101F600068F5E82FF0E086E0989FE00DF11D112460
:101F70009E2F977083E0F695E7958A95E1F7EE0F2F
:101F8000FF1FEE0FFF1FEC58FD4F50E040E080E0D8
:101F9000219130E0092E02C0369527950A94E2F788
:101FA00021703327042E01C0220F0A94EAF7822BF6
:101FB0004F5F5F4F4430510559F7089580E0089511
:101FC0009A3098F5863088F5E82FF0E086E0989F03
:101FD000E00DF11D11248E2F877041E001C0440FE8
:101FE0008A95EAF783E0F695E7958A95E1F7EE0F93
:101FF000FF1FEE0FFF1FEC58FD4F30E020E070E0B8
:102000005191DF011197CB01022E02C09695879561
:102010000A94E2F7817081958527842385278C9324
:102020002F5F3F4F2430310559F7089590934103B6
:1020300080934003089521E030E002C0220F331F57
:102040008A95E2F720953095809140039091410365
:1020500082239323EBCF90919D02809589238093D7
:102060009D02282F277061F4891751F09091DF02AB
:1020700092FF06C0869586958695DDDF10929D02BB
:10208000089521E030E002C0220F331F8A95E2F765
:102090008091400390914103822B932BC7CF909363
:1020A000DD028093DC020895FC0184818823A9F07D
:1020B00087819085009799F0EFDD282F92959F708A
:1020C0009630B1F080F4925F9F70923030F481E0EE
:1020D000203FA1F050F4283E50F080E008C08081FD
:1020E00091812FDFEACF9A5FEFCF243FB1F70895B8
:1020F00081E0283E20F0213F81F7F9CF089508952F
:102100009C01892F99270097E9F09C0188E0A9019B
:1021100074E0569547957A95E1F74115510511F010
:102120008C5F9A01A901569547955695479541159B
:10213000510511F08E5F9A0136952795232B09F0F2
:102140008F5F089580E0E3CFA6E0B0E0EAEAF0E137
:102150000C94D6329C01FC01878190850097C9F4CC
:1021600086E0DE01119601900D928A95E1F7F90162
:10217000258189819A81222381F0662371F0AFDE67
:10218000182F682F89819A811BDF69817A81812FBD
:1021900065DD2696E3E00C94F232DFDE182FF5CFF2
:1021A000A3E0B0E0E6EDF0E10C94C7329C01809131
:1021B00085038217130609F464C0209385038AE11E
:1021C000829F4001839F900C112487EBE82E81E0D1
:1021D000F82E9FEBA92E91E0B92E2BEBC22E21E019
:1021E000D22E312C612C36C0E80DF92DF11DE05EA8
:1021F000FD4F84918A83D501BC91B983762C770CED
:10220000760C770CF6018081780E9A8186E0989F93
:10221000C00111248E549F4F9B838A8310E000E0FD
:10222000EA81FB81E00FF11F5490412C272C200EF6
:102230006981640D41E050FE40E0822D96DB5694AA
:10224000439498E04912F4CF0F5F1F4F06301105F9
:1022500039F76394E62DE30DD7018C91681608F4E5
:10226000C3CFBFEFEB1AFB0AFFEFAF1ABF0A8FEF26
:10227000C81AD80A9BEBE91691E0F90611F03E2E38
:10228000B1CF2396E2E10C94E3320F931F93CF93E7
:10229000DF938B01EA0190915F04943059F58093AC
:1022A000E9008FEF9091E800815095FD06C095ED13
:1022B0009A95F1F700008111F5CF8091E80085FF34
:1022C00019C0F8D8811111C08091E80085FD06C0C1
:1022D0008091E8008E778093E800F3CFF801819138
:1022E0008F018093F100219779F78091E8008E7734
:1022F0008093E800DF91CF911F910F910895BC0169
:1023000043E050E082E0C1CFBC0146E050E082E013
:10231000BCCFCF93DF93D82FC92F48E050E0682F70
:10232000792F81E0B2DF88E0ED2FFC2FA5E5B4E046
:1023300001900D928A95E1F7DF91CF910895B0E079
:10234000A0E0E5EAF1E10C94CF32F82EE92ED62E8A
:10235000C72E8A018091CB02AA24A394B12C8A3083
:1023600018F48AE0A82EB12CC1E0D0E06D2D7C2DB0
:102370008F2D9E2DF8010995811104C02196AC1670
:10238000BD062CF4CDB7DEB7EAE00C94EB32CC9F5F
:102390009001CD9F300D300D112490E080E045E399
:1023A0004A95F1F70000019682179307C1F7DECF37
:1023B0008091A7029091C003892B90919E0299234E
:1023C00089F0892B90E020E532E0F90140812F5F10
:1023D0003F4F41119F5F42E026353407B1F791111D
:1023E00010929E0280934E0248E050E06FE972E046
:1023F0008EE492E00E948933892BB9F088E0EEE404
:10240000F2E0AFE9B2E001900D928A95E1F7E09138
:102410004B04F0914C04309741F00280F381E02DA1
:10242000309719F08EE492E009950895882311F011
:1024300044DDBECF0895882331F09091A702892B07
:102440008093A702B5CF08951F93CF93DF93982F62
:10245000162F81E09A3019F09D3031F480E09ED043
:10246000DF91CF911F910895C091B506D091B60626
:1024700086E0FE01A1EBB3E001900D928A95E1F7B1
:10248000903E90F186E0FE0111928A95E9F7C091A5
:10249000B506D091B606111133C046E050E0BE013A
:1024A00081EB93E00E9489339E01255B3440892BA8
:1024B00091F52A5F3F4F4091B703642F70E0C90147
:1024C0000E94B332481B463010F4240F311D2115F1
:1024D00072E0370710F030E020E02B543B4F309390
:1024E000B6062093B506BCCFF6E09F9FB00111243D
:1024F0006E52734F46E050E0CE010E948033C7CF4A
:102500009E012A5F3F4FFE012E173F0731F2808167
:1025100080958193F9CFC90145E0969587954A95B5
:10252000E1F741E050E0BA0102C0660F771F8A95DB
:10253000E2F7CB016091B3047091B404862B972B22
:10254000B9016B5F7F4FE5E076956795EA95E1F716
:1025500002C0440F551F6A95E2F7842B952B909388
:10256000B4048093B304A5CFFF920F931F93CF932E
:10257000DF93EC01F62EFC0101900020E9F78F01BA
:1025800001501109C017D10728F0CDB7DEB7E5E03B
:102590000C94F0326F2D899157DFF4CFCF93382F01
:1025A000E091B506F091B606E55BF4402091B703E3
:1025B000622F70E0CF010E94B332281B822F332399
:1025C00061F066E00E94FE32C82FC15010F4CF9136
:1025D000089560E080E238DFF8CF9F01280F311DB9
:1025E0002115324018F080E0F0E0E0E08E0F9F2FE0
:1025F000911D8B549B4F9093B6068093B506E7CF01
:10260000E5EBF4E080E092E0DF019C011D922150B7
:102610003040E1F7F093B606E093B5068FEF9FEFF9
:102620009093B4048093B3040895AB0124E630E0A2
:10263000BC0188E70E9478309C0181E0232B09F0DF
:1026400080E008958091BC039091BD03911103C077
:1026500091E089270895882361F062E070E084E1C9
:1026600092E1E3DF811103C08091BC0308951092D1
:10267000BC038091BC03ECCFA5E0B0E0E2E4F3E161
:102680000C94D7328091BC038D838091BD03882345
:10269000E1F047D8DC01CB01805A9541AF4FBF4FE5
:1026A0008093B8039093B903A093BA03B093BB038C
:1026B0008D81811107C062E070E082E192E1B5DFB7
:1026C000811108C08091BC038D838D812596E2E045
:1026D0000C94F33281E08093BC03F4CF9091DF023D
:1026E00092FB222720F9281771F080FB92F9909332
:1026F000DF026091DE027091DF0284E090E00E94D0
:10270000873682E0A8CC0895CF92DF92EF92FF92B5
:102710001F93CF93DF93CDB7DEB728970FB6F8940A
:10272000DEBF0FBECDBFC090C702D090C802E09000
:10273000C902F090CA020E94910BDC01CB018C19F6
:102740009D09AE09BF0911E084369105A105B105C7
:1027500070F162D9DC01CB010296A11DB11D898304
:102760009A83AB83BC8380911101909112018354B1
:102770009D4F20911001422F50E0253010F044E091
:1027800050E0BE016F5F7F4F0E94963382E090E081
:102790000E944332182F882351F00E94910B6093BE
:1027A000C7027093C8028093C9029093CA02812F16
:1027B00028960FB6F894DEBF0FBECDBFDF91CF9144
:1027C0001F91FF90EF90DF90CF9008958F929F928E
:1027D000AF92BF92FF920F931F93CF93DF93CDB72A
:1027E000DEB72A970FB6F894DEBF0FBECDBFF62E28
:1027F000072F90E080E00E944332182F882309F4CD
:1028000082C080910301482F50E0882311F041E0FD
:1028100050E0609104017091050163547D4FCE0139
:1028200006960E9496338090B9029090BA02A090CA
:10283000BB02B090BC020E94910B6F83788789879E
:102840009A87DC01CB0188199909AA09BB0984364A
:102850009105A105B10540F48EEB92E00E94240A97
:102860009E81891709F44FC081E090E00E944332B5
:1028700081111BC010E085E0E4EBF2E0AF2DB02F3A
:1028800001900D928A95E1F7812F2A960FB6F89460
:10289000DEBF0FBECDBFDF91CF911F910F91FF9093
:1028A000BF90AF909F908F90089580910B01482F1B
:1028B00050E0863010F045E050E060910C017091DE
:1028C0000D0163547D4FCE0101960E9496338EEB2D
:1028D00092E00E94240A9E818913CCCF0E94910B22
:1028E0006093B9027093BA028093BB029093BC02CA
:1028F00085E0FE013196A4EBB2E001900D928A953D
:10290000E1F711E0B8CF85E0EEEBF2E0DE011196E1
:1029100001900D928A95E1F71111EACFACCF1F9289
:102920000F920FB60F9211242F933F934F935F9303
:102930006F937F938F939F93AF93BF93EF93FF9387
:102940008091E10082FF09C08091E20082FF05C012
:102950008091E1008B7F8093E1008091DA0080FF1D
:1029600024C08091D80080FF20C08091DA008E7F43
:102970008093DA008091D90080FFA9C080E189BDF1
:1029800082E189BD09B400FEFDCF81E080935F0440
:1029900080915404811109C00E943B0A0E94DC0A04
:1029A0008091E20084608093E2008091E10080FFEA
:1029B0001AC08091E20080FF16C08091E2008E7FF5
:1029C0008093E2008091E20080618093E200809138
:1029D000D80080628093D80019BC85E080935F04A2
:1029E00083E0809339018091E10084FF2FC08091C2
:1029F000E20084FF2BC080E189BD82E189BD09B47A
:102A000000FEFDCF8091D8008F7D8093D80080910B
:102A1000E1008F7E8093E1008091E2008F7E8093C1
:102A2000E2008091E20081608093E2008091600486
:102A3000882309F452C084E080935F0480915F048E
:102A4000843009F452C081E0809339018091E10023
:102A500083FF2CC08091E20083FF28C08091E100B9
:102A6000877F8093E10082E080935F04109260048E
:102A70008091E1008E7F8093E1008091E2008E7F63
:102A80008093E2008091E20080618093E20042E066
:102A900060E080E00E94AA0A8091F0008860809344
:102AA000F00081E08093390180933801FF91EF912C
:102AB000BF91AF919F918F917F916F915F914F9156
:102AC0003F912F910F900FBE0F901F90189519BC3A
:102AD00010925F041092540468CF8091E30087FD48
:102AE00002C081E0A9CF83E0A7CF82E0ADCF789488
:102AF0001F921FB61F9211248F939F93AF93BF9382
:102B00008091500490915104A0915204B0915304CB
:102B10000196A11DB11D8093500490935104A09380
:102B20005204B0935304BF91AF919F918F911F9026
:102B30001FBE1F9018952FB7F89480915004909164
:102B40005104A0915204B09153042FBF0895F3DFB4
:102B50002091400430914104232B21F080933C04C8
:102B600090933D042091420430914304232B21F0A3
:102B700080933A0490933B04E0914B04F0914C0411
:102B8000309759F00680F781E02D309731F082E0E0
:102B900080933E048EE394E009950895CF931092BC
:102BA000A702C6E0E0E5F2E0DF018C2F1D928A95D6
:102BB000E9F790E080E00E94F30B90E080E00E9453
:102BC000CB0B1092C003F4DBEEE3F4E0DF011D92C7
:102BD000CA95E9F71092370410923804109239041C
:102BE000B6DFCF910895AAE2B0E0E9EFF5E10C94E9
:102BF000D63281E694E0FC0101962091F100208319
:102C000024E089369207B9F780916204893009F48B
:102C100059C0C8F4823009F4B5C0833009F484C0C7
:102C2000813089F18091E80083FF86C28091610440
:102C3000909162049A3008F07FC2E92FF0E0E356E9
:102C4000F94C0C945B338A3009F48BC08B3051F70C
:102C500080916104813231F780916504909166041E
:102C6000892B01F78091E800877F8093E8000E941C
:102C70008B0A81E090916304911101C080E0809300
:102C800038018CDFCFCF80916104813A59F6809171
:102C9000E800877F8093E800809165049091660446
:102CA000892B61F468E085E594E070E00E94360BC2
:102CB0008091E8008B778093E800B4CF60E090E0EB
:102CC00080E0F3CF80916104813209F0ABCF809135
:102CD000650490916604029708F0A4CF8091E80003
:102CE000877F8093E8008091E80082FF18C0909170
:102CF000F3008091F200029731F48091F10081306D
:102D000011F0863021F48091F10080933701809199
:102D1000E8008B778093E8000E948B0A83CF809134
:102D20005F048111E0CF7ECF80916104813A09F088
:102D300079CF8091650490916604892B09F072CF58
:102D40008091E800877F8093E8008091E80080FF11
:102D5000FCCF809138018093F1008091E8008E775C
:102D6000D9CF80916104813209F05CCF8091E80075
:102D7000877F8093E8000E948B0A8091640480938F
:102D8000360150CF80916104813A09F04BCF809198
:102D9000E800877F8093E8008091E80080FFFCCF07
:102DA00080913601D8CF803899F0823809F0C4C1BB
:102DB000809165048F70873008F0BEC18093E90070
:102DC0008091EB0085FB882780F91092E90006C00E
:102DD00080915D0490915E04911182609091E80071
:102DE000977F9093E8008093F1001092F10080911A
:102DF000E8008E779DC1882309F48BC1823009F0E9
:102E00009BC18091630481118EC1809165048F7094
:102E10002FEF280F263008F08FC18093E900209112
:102E2000EB0020FF80C1933031F48091EB00806291
:102E30008093EB0078C19091EB0090619093EB0050
:102E400021E030E001C0220F8A95EAF72093EA00E2
:102E50001092EA008091EB008860EACF81116CC18A
:102E6000109163041F778091E3008078812B809319
:102E7000E3008091E800877F8093E8000E948B0A3E
:102E80008091E80080FFFCCF8091E3008068809310
:102E9000E30082E0111183E080935F044DC180580C
:102EA000823008F049C140916304509164044C3D64
:102EB00083E05807A1F583E08A838AE289834FB7CC
:102EC000F894DE01139620E03EE051E2E32FF0E0BB
:102ED00050935700E49120FF03C0E295EF703F5FED
:102EE000EF708E2F90E0EA30C0F0C7968D939D93DF
:102EF0002F5F243159F74FBF8091E800877F80937F
:102F0000E8006AE270E0CE0101960E94360B8091E3
:102F1000E8008B778093E8000FC1C096E7CF20913F
:102F2000650430916604852F99278330910509F156
:102F300060F48130910509F472C0029709F0FCC079
:102F40008BE390E0E5EDF2E129C08132910509F4CF
:102F50005AC0829709F0F0C02115310509F469C003
:102F60002130310509F0E8C08BE790E0E6E1F2E1BD
:102F700015C0CA0199274130B1F18230910509F499
:102F80003AC0892B09F0D8C0E4E4F3E1E4918E2F34
:102F900090E0E4E4F3E1009709F4CEC02091E8006A
:102FA000277F2093E80020916704309168048217FE
:102FB000930708F49C0140E02115310509F03EC05B
:102FC00041113CC08091E80082FDA1CF80915F0457
:102FD000882309F49CCF853009F499CF8091E800CB
:102FE00083FFF0CF94CFE2E3F3E1E4918E2F90E002
:102FF000E2E3F3E1D0CFE2E2F3E1E4918E2F90E05F
:10300000E2E2F3E1C8CF2115310571F0213031053D
:1030100009F092C089E090E0E0E0F3E1BFCF82E107
:1030200090E0E0E1F3E1BACF89E090E0E7EEF2E191
:10303000B5CF84E490E0E1E9F2E1B0CF80915F04A4
:10304000882309F464CF853009F461CF8091E800CA
:1030500083FD5DCF8091E80082FDB4CF8091E800D0
:1030600080FFAACF9091F3008091F20021153105E5
:1030700019F08830910550F041E0089709F040E0E0
:103080008091E8008E778093E80096CF449140933A
:10309000F1003196215031090196E8CF803809F0CE
:1030A0004BC08091E800877F8093E80080916004A6
:1030B0008093F1009CCE81113FC0109163041230C7
:1030C000D8F58091E800877F8093E8001093600432
:1030D0000E948B0A112311F084E005C08091E30067
:1030E00087FDFACF81E080935F0442E061EC81E0EC
:1030F0000E94AA0A42E261EC82E00E94AA0A809140
:103100005F04843021F081E08093390115C082E0B2
:10311000FBCF80916304813079F481E0933009F032
:1031200080E080935E041092E9008091E800877F40
:103130008093E8000E948B0A8091E80083FF0AC018
:103140008091E800877F8093E8008091EB008062A7
:103150008093EB00AA96E3E00C94F2321F920F9258
:103160000FB60F9211242F933F934F935F936F935A
:103170007F938F939F93AF93BF93CF93DF93EF93FF
:10318000FF93D091E900DF708091EC00C82FC170EF
:1031900080FDC0E81092E9008091F000877F809365
:1031A000F000789420DD1092E9008091F0008860B2
:1031B0008093F000CD2BCF70C093E900FF91EF9189
:1031C000DF91CF91BF91AF919F918F917F916F913F
:1031D0005F914F913F912F910F900FBE0F901F90D5
:1031E0001895DCDC2FEF84E39CE021508040904078
:1031F000E1F700C0000088E19AE00FB6F894A895C6
:10320000809360000FBE90936000FFCF662309F4A7
:103210005BC08D3C31F40E94500C81958093410439
:1032200096CC8E3C19F40E94500CF8CF8F3C31F4B0
:103230000E94500C819580934004F2CF803D19F498
:103240000E94500CF8CF893D29F40E942E0C8093E7
:103250004204E6CF8A3D21F40E942E0C8195F7CFDF
:103260008B3D31F40E942E0C819580934304D8CF7E
:103270008C3D19F40E942E0CF8CF9FE2980F9830E5
:1032800070F4815D990B21E030E001C0220F8A9536
:10329000EAF780913F04822B80933F04C1CF8D3D9C
:1032A00031F480913904816080933904B9CF8E3D27
:1032B00021F4809139048260F7CF8F3D09F0B0CFBF
:1032C000809139048460F0CF409140048D3C59F4E2
:1032D0008091410487FF0DC01092410441110BC041
:1032E0001092370408C08E3C81F480914104181676
:1032F0009CF3442381F08091420490914304892BF4
:1033000009F08ECF109238048BCF8F3C49F447FFE1
:10331000F0CF10924004809141048111ECCFE0CFB6
:10332000803D19F41416ACF3E4CF90914204893D2A
:1033300029F41916F4F610924204DBCF8A3D19F4F1
:1033400097FFD7CFF8CF909143048B3D29F497FF97
:10335000D0CF10924304CDCF8C3D19F41916CCF385
:10336000C8CF9FE2980F983090F4815D990B21E0CF
:1033700030E0B90102C0660F771F8A95E2F7CB01F2
:10338000809590913F04892380933F04B2CF8D3D77
:1033900031F4809139048E7F80933904AACF8E3D19
:1033A00021F4809139048D7FF7CF8F3D09F0A1CFB3
:1033B000809139048B7FF0CF8823B1F19CEF980F77
:1033C000913A70F4E0E5F2E09191891303C0DF01D6
:1033D00011971C9292E0E635F907B1F70C94D811D9
:1033E00090E2980F983050F4877091E001C0990FE7
:1033F0008A95EAF7892F0E945D0FF0CF9BE5980F21
:10340000933020F490E080E00C94F30B98E5980F53
:103410009B3120F490E080E00C94CB0B93E3980F69
:10342000933110F460E0F2CE0895CF93C82F882333
:10343000A9F08CEF8C0F813A00F5E0E5F2E0DF01B6
:103440008D91C81769F022E0A635B207C9F76C2F35
:103450008EE492E00E94B10B0E94D811CF910895A2
:103460008191C81303C0DF0111971C9232E0E63549
:10347000F307B1F70E94D811EACF80E28C0F8830B1
:1034800068F4C77021E030E001C0220FCA95EAF766
:103490008091A702822B8093A702DECF8BE58C0F51
:1034A000833038F42C2F2452330BC9010E94F30BC4
:1034B000D5CFE8E5EC0FEB3150F4F0E0EE0FFF1F55
:1034C000E150FE4F808191810E94CB0BC7CF83E3F7
:1034D0008C0F833118F661E08C2F98DEBFCF0F93ED
:1034E0001F93CF93C82F10E000E0893311F400E55B
:1034F00010E08C2F9ADF0115110531F48C2F5CDF61
:10350000CF911F910F9108958FE99FE00197F1F7F7
:1035100000C0000001501109EECFEF92FF920F930F
:103520001F93CF93DF93C42FD22FFC018581882373
:10353000A1F040934604FFDA90934504809344043D
:10354000C77081E001C0880FCA95EAF70E941B127C
:10355000CDB7DEB7E6E00C94EF32109146041413B9
:1035600031C0E0904404F0904504E5DA8E199F09DB
:10357000883C910538F5C0E2CD0F1D17B1F01770EA
:10358000FF24F3948F2D012E01C0880F0A94EAF7CF
:103590000E941612C83048F48D2F877001C0FF0CAE
:1035A0008A95EAF78F2D0E941B12802F98DFC83072
:1035B00078F6D77081E001C0880FDA95EAF70E94AB
:1035C0001612C6CFC77081E001C0880FCA95EAF70E
:1035D000F6CFB0E0A0E0EFEEFAE10C94CF327C0140
:1035E000FC018481882309F4E1C061E0C7010E94E5
:1035F000A410EC01F7018581FE01E054FE47882309
:10360000B1F19E013A9521153F4448F59E013327BB
:10361000A901445051094432510530F02B5231096F
:103620002E30310508F08AC5A091F102B0E0AA0F52
:10363000BB1FAA50BD4F2D913C9111972F3F9FE783
:10364000390709F4B2C52F5F3F4F2D933C93ED31FD
:10365000F10508F062C1E955F94C0C945B3330E098
:1036600020E0CF3FD10509F098F69E01D1CFED3192
:10367000F10508F08EC1EC53F94C0C945B338823B0
:1036800009F485C083EED1DE8FE229DF83EE94DE7C
:103690007EC0882309F47BC083EEC7DE80E3F5CFCC
:1036A000882309F474C083EEC0DE81EEBEDE8FE2B3
:1036B00016DF81EE81DEEACF882309F468C083EE4D
:1036C000B4DE81EEB2DE80E3F3CF882309F45FC07D
:1036D00080EEABDE80E503DF80EED9CF882309F4EE
:1036E00056C080EEA2DE8FE4F6CF882309F44FC0E7
:1036F00080EE9BDE82E5EFCF882309F448C080EEA0
:1037000094DE81E5E8CF882309F441C082EE8DDEA6
:1037100080E5E5DE82EEBBCF882309F438C082EE77
:1037200084DE8FE4F6CF882309F431C082EE7DDE9B
:1037300080E5D5DE82EE40DE82EE77DE81EE75DE5C
:103740008FE4CDDE82EE38DE81EEA1CF8823F9F062
:1037500082EE6BDE80E5C3DE82EE2EDE82EE65DE7B
:1037600081EE63DE8FE4BBDE82EE26DE81EE24DEB8
:103770008AE2B5DE0CC0882341F081E080937102BB
:1037800081EE53DE86E2ABDEDFCF109271028091D4
:103790009D02877059F0F7018581882339F0809167
:1037A000DF0282FF03C082E00E942B10CDB7DEB79C
:1037B000EAE00C94EB32882351F381EE36DE87E2A7
:1037C0008EDE81EEF9DD80917102882301F380E5C0
:1037D000D0CF882329F081E0809370028FE2C9CF97
:1037E00010927002D4CF882391F280E378DE80912A
:1037F0007002EBCF882339F081E080936F0281EE75
:1038000014DE8FE2C0CF10926F02C1CF882309F47B
:10381000BECF81EE0ADE80E362DE81EECDDD8091F7
:103820006F02D3CF882339F081E080936E0281EE5E
:10383000FCDD86E3A8CF10926E02A9CF882309F49D
:10384000A6CF81EEF2DD87E34ADE81EEB5DD809121
:103850006E02BBCF882309F49ACF82EEE6DD88E0C2
:103860003EDE82EEA9DD84E03ADE86E00E941B1097
:103870008ECF882309F48BCF82EED7DD88E02FDE50
:1038800082EE9ADD88E0F0CF882309F480CF82EEC3
:10389000CCDD88E024DE82EE8FDD8CE0E5CF88236E
:1038A00009F475CF82EEC1DD88E019DE82EE84DD99
:1038B00082E1DACF882309F46ACF82EEB6DD88E0B0
:1038C0000EDE82EE79DD88E1CFCF882309F45FCF69
:1038D00082EEABDD81E103DE82EE6EDD81E1C4CFFD
:1038E000882309F454CF82EEA0DD8EE1F8DD82EE6C
:1038F00063DDBBCF882309F44ACF82EE96DD81EEEB
:1039000094DD88E3ECDD81EE57DDF1CF882309F407
:103910003ECF86E00E9441103ACF10E2CC33D10571
:1039200020F4FE01ED53FE4F10811F921F93DF9391
:10393000CF93F70180811F928F9381811F928F9384
:103940008AE391E09F938F931F9288E18F9386E59E
:1039500092E09F938F930E94A6332DB73EB7225FCC
:103960003F4F0FB6F8943EBF0FBE2DBF80915E0350
:1039700090915F034497C1F080915E0390915F0343
:10398000FC01E75BFC4F1083019690935F038093EB
:103990005E03FE01E851FC47E730F10508F03EC048
:1039A000EF51F94C0C945B3310925F0310925E035D
:1039B000E9E4F3E08DE593E020E221938E179F0781
:1039C000E1F7DACF06E221EE41EE6AE17CE7C701DA
:1039D000A4DDDDCE07E225EE45EE6BE17CE7F7CF17
:1039E00006E221EE40EE68E17CE7F1CF07E225EE4A
:1039F00044EE69E17CE7EBCF06E221EE42EE6CE1BA
:103A00007CE7E5CF07E225EE46EE6DE17CE7DFCF10
:103A100008E221E045EE6EE17CE7D9CFF701858130
:103A2000882309F4AAC3109246049E01305723321A
:103A3000310508F08BC384E090E00E9468369093D3
:103A4000DF028093DE02FE01E150F047E232F10531
:103A500020F4E851F94C0C945B338091DE028160D4
:103A60008093DE026091DE027091DF0284E090E0DC
:103A70000E94873693D88BCE8091DF028860809336
:103A8000DF02F0CF8091DE028260EACF8091DE0219
:103A90008460E6CF8091DE028860E2CF8091DF0211
:103AA0008160EDCF8091DF028260E9CF8091DE02FC
:103AB0008061D6CF8091DE028062D2CF8091DE021B
:103AC0008064CECF6BD88091DE028068C9CF8091B0
:103AD000DE028C60C5CF8091DF028360D0CF809101
:103AE000DE028E7FBDCF8091DF02877FC8CF8091BD
:103AF000DE028D7FB5CF8091DE028B7FB1CF8091CA
:103B0000DE02877FADCF8091DF028E7FB8CF8091BC
:103B1000DF028D7FB4CF8091DE028F7EA1CF8091B6
:103B2000DE028F7D9DCF8091DE028F7B99CF36D8CC
:103B30008091DE028F7794CF8091DE02837F90CFD9
:103B40008091DF028C7F9BCF8091DE0282FB9927E0
:103B500090F921E0922790FB82F990FB83F980CFC6
:103B60008091DF02982F909591708E7F892B90FB2A
:103B700081F985CF9091DE02892F8F7B96FF80643B
:103B80006FCF0CD89091DE02892F97FB87F9805870
:103B900067CF61E08EE090E00E946D3663CF60E019
:103BA000F9CF9091DE02892F8F7E94FF806158CFEC
:103BB0009091DE02892F8E7F90FF816051CF90918E
:103BC000DF02892F877F93FF886059CF85E3DFC2AB
:103BD0009E01205E324520323105A8F481112AC0B1
:103BE000CF7181E090E09C0102C0220F331FCA9583
:103BF000E2F7E901622F83E090E00E946D36CE018A
:103C00000E944F10C4CD8823A9F0CA353CE7D307E2
:103C100009F486C008F04FC0C1309CE7D90709F409
:103C20007EC0C330ECE7DE0709F473C0C115DC4782
:103C300009F453C0F70187819085009709F474C097
:103C40000E944C0ED82FC92FF701A580068102953E
:103C50000F7080919D02877001F1BA2CAA20F1F0BB
:103C6000892F807F803461F080E28D0F8830A8F04A
:103C7000892F807E803221F4D23078F0002369F0E1
:103C80008091DF0282FF09C082E00E942B108091A8
:103C90009D028770BB24B3948111B12C8C2F829527
:103CA0008F70C82ED12C8C3008F0AEC0F601E65FC4
:103CB000F84C0C945B33CB352CE7D20799F1CC351B
:103CC000DC4709F0B7CF8091DF0282FB882780F9BB
:103CD00091E089270E946E13ADCF0E94CE158FEF21
:103CE00094E3ECE081509040E040E1F700C0000038
:103CF00087E797E7909301088093000888E19AE0AE
:103D00000FB6F894A895809360000FBE9093600062
:103D1000FFCF6FEF7FEF90E080E00E94873661DA9F
:103D200081E0D8CF80E0D6CF8581008111818823C2
:103D300069F0C8010E946F0FC82F682FC8010E9448
:103D4000E00FB8018C2F0E942E0E7ACFC8010E947E
:103D5000AD0FC82FF6CF1C2F1F70C07F11F012952A
:103D6000107FAA20B9F0112369F080E28D0F88300E
:103D700010F0D11109C08091A702182B1093A7024F
:103D80000E94D8118D2F3FC08091C003182B109333
:103D9000C003F6CF8D2F10DB1123B1F180E28D0F20
:103DA000883010F0D11104C0812F0E945D0F06C031
:103DB00010958091C00318231093C0030E94D8115E
:103DC00023C01C2F1F70C07FC03211F01295107FCE
:103DD000DD2349F0D13009F458C0AA2009F462C0AB
:103DE000002351F1CFCF8091DF0282FD21C0AA20B4
:103DF000D1F0112339F08091A702182B1093A7025C
:103E00000E94D81180E011DB38E0C31AD10884E0A9
:103E1000C816D10408F07AC10E941B0C60E0C701EB
:103E20000E94A410C3CC80E0C7DA112369F3BCCF91
:103E3000AA2091F0011104C0812F0E941B12E4CF2F
:103E4000013011F780919E02912F98231917E1F20A
:103E5000182B10939E02D8CF0111D6CF812F0E942C
:103E6000161290919E02812F892329F0812F80952F
:103E7000892380939E0280917302912F982321F2CF
:103E80001095182310937302BFCFAA2021F006309B
:103E900008F0BACFD1CF053008F0B6CF812F0E94FD
:103EA0001612B2CF0023D1F3D93349F4FFEF27EE36
:103EB00033E0F15020403040E1F700C000008D2F8A
:103EC0007BDAA2CF8C2F86958695837069F081303E
:103ED00009F09ACF8D2F9C2F9370A11002C080E023
:103EE00090E00E94CB0B90CF8D2F9C2F9370A11050
:103EF00002C080E090E00E94F30B86CF6A2D8D2FE8
:103F000085D982CF8C2F837009F040C0A1107CCF5F
:103F10004D2F429546954770440F440F2D2F2F701B
:103F200030E0042E02C0220F331F0A94E2F790E023
:103F300080E0D4FF09C08FE090E002C0880F991F95
:103F40004A95E2F780959095C695C695C370C230A4
:103F5000A1F0C33079F04091DC025091DD02C13014
:103F600039F0822B932B842395230E944F104CCF42
:103F7000242B352B822B932BF8CF822B932B209144
:103F8000DC023091DD0282279327EFCF8695AA20AD
:103F900011F08C2F8170882309F436CF4D2F429574
:103FA00046954770440F440F2D2F2F7030E0042E9C
:103FB00002C0220F331F0A94E2F790E080E0D4FFA2
:103FC00009C08FE090E002C0880F991F4A95E2F780
:103FD00080959095C695C695C370C230A1F0C33048
:103FE00079F04091400350914103C13039F0822B68
:103FF000932B842395230E94161006CF242B352B58
:10400000822B932BF8CF822B932B2091400330915E
:10401000410382279327EFCFCF70AA2029F08C2F5E
:104020000E9441108D2F09CF8D2F0E9416128C2FC8
:104030000E941B10E9CED23F61F160F4D03FB9F08D
:10404000D13F81F0AA2009F451C001119BCE8C2FE1
:104050008F7123C0D33F21F1D43FA1F79091DF02AC
:1040600092FD2CC08C2F8F71AA2011F316C0AA20AC
:1040700061F0053008F0C8CECF7181E090E002C059
:10408000880F991FCA95E2F7C0CF063008F0BCCE62
:10409000F3CF8C2F8F71A110CBCF0E944110B4CEE3
:1040A00090E080E0AA2009F4A6CFCF7181E090E0F3
:1040B00002C0880F991FCA95E2F79DCFAA2061F030
:1040C0008C2F8F7192FFE9CF98E0899F9001112486
:1040D000236020939D02E1CF81E00E942B100230EB
:1040E00008F492CE82E00E942B108ECE002359F06D
:1040F000D93309F0E4CEEFEFF7EE23E0E150F040E2
:104100002040E1F7DACE8C2F8F7192CFBB2009F4DB
:1041100085CE80919D0280FD81CEF7011582869526
:10412000869586950E944110C70153DA80919D02C1
:104130008695869586950E941B1070CEED31F1050F
:1041400008F0EBCBEA5EF84C0C945B33C631FCE72D
:10415000DF0709F03DCD8091A7028A7A91E009F44A
:1041600090E09093720269E2811165E38EE492E03F
:104170000E94B10B0E94D8110ACBC6312CE7D2079E
:1041800009F026CD80917202811120CD89E2E0E50F
:10419000F2E026E532E09191891303C0DF01119727
:1041A0001C922E173F07B9F7E5CFED31F10508F066
:1041B000B4CBED5CF84C0C945B33B0E0A0E0E3EEE4
:1041C000F0E20C94D23280919A02807F09F04FC0C5
:1041D00080919902882309F44AC0E091B20489E0F1
:1041E000D82E809169048E1709F441C00E2F10E07B
:1041F000ED9DF0011124E659FB4F84818823E1F104
:10420000D09EE001D19ED00D1124FE01E659FB4F56
:1042100091818091950298132FC090818091940292
:1042200098132AC08581811127C0E280F380809194
:10423000960290919702E81AF90A60E084E992E008
:104240000E94A41088ECE816F104B0F480919A0260
:104250008F70806180939A02C059DB4F88818F7084
:104260008061888384E992E0B4D90E94650FCDB75C
:10427000DEB7E7E00C94EE32F8013196E770B1CF8B
:10428000AFE0B0E0E6E4F1E20C94CA328C0186E0E3
:10429000F801DE011A9601900D928A95E1F7F80176
:1042A000F480E58084E9882E82E0982E809198023F
:1042B000811128C0F11003C0FF24F3941BC0EE202D
:1042C000F1F0C8010E945410F82E8823C1F089E053
:1042D000F801A4E9B2E001900D928A95E1F780918E
:1042E0009802813031F480919402909195020E945D
:1042F000A10F63DF8F2D2F96EFE00C94E632C801FB
:1043000068D9DACF5080A180C280D38060E084E990
:1043100092E00E94A410B090990280919602909130
:104320009702BB2009F4F6C03601681A790A60E0EA
:1043300084E992E00E94A410F8EC6F16710408F072
:10434000B8C0FF2009F4B8CF80919A02382F307F8F
:1043500020919502F801918131115FC0FE2C291343
:104360001CC0209194029081291317C040919B0298
:1043700050919C02278130854217530771F4E11058
:1043800045C08F70806180939A0284E992E021D9C0
:1043900080919A02F8018683ADCFE11037C06A2D73
:1043A000852D0E94060A6A2D852D0E94060AE82E98
:1043B0008111A0CF5A86AB868A859B850E94A10F6A
:1043C000292F22952F70903458F49F70223080F05E
:1043D000992391F0F8019681907F71F4FE2C8ACF99
:1043E0002A5F2F70223060F0C801F3D8EB2CF6CF93
:1043F000992311F0882391F3805E883078F3F4CF0D
:10440000803F60F3815F833048F3EECF80919A0262
:10441000816080939A02F12C6DCF29131DC02091E9
:1044200094029081291318C040919B0250919C02E4
:10443000278130854217530779F4E1100DC0868338
:10444000C801C7D889E0F801A4E9B2E001900D9253
:104450008A95E1F7FB2C4ECFC8010E9454108823A7
:1044600009F44DCFEE2009F44ACF80919A028032B0
:10447000B0F020919402309195023A832983DC8236
:10448000CB82909198029D831E828F8380919B02A4
:1044900090919C0299878887CE0101969AD889E0ED
:1044A000F801A4E9B2E001900D928A95E1F785DE6A
:1044B00003CF80919A02982F907F49F484E992E08B
:1044C00088D889E0F40111928A95E9F7A4CFFF20FA
:1044D00009F4F2CE20919502F80191812913BCCF05
:1044E0002091940290812913B7CF40919B02509163
:1044F0009C02278130854217530709F0ADCFE110A8
:10450000ABCF8683C80165D889E0F40111928A9502
:10451000E9F7A0CFC81AD90A60E084E992E00E94C6
:10452000A410F8ECCF16D10460F6FF2009F4C4CE35
:10453000FE2CEE2009F4E3CE90919502F8018181E2
:10454000981316C0909194028081981311C0209105
:104550009B0230919C02878190852817390741F48E
:1045600089E0A4E9B2E001900D928A95E1F7C2CE0C
:10457000C8010E945410811192CF80919A028160EB
:1045800080939A02C80125D8B5CEA2E1B0E0EBEC49
:10459000F2E20C94D5320A871B872C873D874E8721
:1045A0005F87688B798B8A8BCE010A9669DE8111D1
:1045B0000CC089E0FE013A96DE01119601900D9241
:1045C0008A95E1F74E8541110BC019E08091B20444
:1045D00090916904891332C06296E4E00C94F13240
:1045E0002091690430E0C9010196877099275091A4
:1045F000B20458171906A1F04D8399E0929FD0019B
:10460000939FB00D1124A659BB4FFE013196019026
:104610000D929A95E1F7809369040E94650FD5CFBA
:104620000E94CE15109269041092B20489E0E4E968
:10463000F2E0DF011D928A95E9F7C7CF819FC001A3
:10464000112486599B4F1CDE882331F28091B204DD
:1046500090E00196877099278093B204B7CFEF92CC
:10466000FF920F931F93CF93DF938091C203882310
:1046700061F0E091C1038DE0F82E8091C203E8174C
:1046800048F01092C2031092C103CDB7DEB7E6E046
:104690000C94EF32EE24E394EE0EE092C103CE2FA1
:1046A000D0E0EF9DF0011124ED53FC4F848188236D
:1046B000F1F087819085892BE1F4818592858F3F88
:1046C0009807B9F0892B49F483EE0E94151A8CE201
:1046D0000E946F1A83EE0E94DC19FC9EF001FD9E81
:1046E000F00D1124ED53FC4F14821092C003EE2DF7
:1046F000C4CF00811181228133814481558166813B
:104700007781808542DFE9CF10923604109235041C
:104710001092350180913404809333040E94A80CD8
:104720009ECFB0E0A0E0E7E9F3E20C94C732C0917D
:10473000330401E010E09DE0592E24E0622E77243E
:104740007394809134048C1308C089DF0E94A80CF4
:10475000CDB7DEB7E2E10C94E332D0E0FE01EE0F1C
:10476000FF1FE55DFB4F80819181AEE2B1E00097D4
:1047700011F0B0E0A0E014962C911497211151C0D3
:104780002090C20343EC53E030E020E0312C2215AE
:1047900008F045C0FA0183849484AD90BC901197D1
:1047A0006FEF7FEF412CC42CD12CF601EE0FFF1FD1
:1047B000EA0DFB1DE590F4908E149F0409F4B601F8
:1047C000E114F10411F04394EECF6F3F760771F1DD
:1047D000F80102C0EE0FFF1F6A95E2F73E2AB8010A
:1047E000042C02C0660F771F0A94E2F7615071092A
:1047F00036161706C9F412964D915C911397529E86
:10480000F001539EF00D1124ED53FC4F5087478368
:104810006482108211829287818715967C920E9411
:104820007E0C2196C3708DCFFA0114822F5F3F4F0B
:10483000435F5F4FACCFA3E1B0E0E1E2F4E20C9460
:10484000CD321A821982FE01339688E0DF011D9273
:104850008A95E9F787E3E82E82E0F82E10E000E081
:10486000CC24C394D12C22E4A22E22E0B22EF70154
:1048700081917F018F3F09F445C0F894E82FE295BC
:10488000EF70F0E021A18F70A60102C0440F551F08
:104890008A95E2F7CA01922F982B91A392A1809555
:1048A000892382A3789400C0ECE3F2E031E0912CFC
:1048B00021912F3F09F497C0A22FA295AF70B0E0CD
:1048C00090968C9190E02F7002C0959587952A95CF
:1048D000E2F780FD88C0832F982A330FAE16BF06FB
:1048E00039F7F701319780818F3F11F00E94F30C67
:1048F00050EA5A95F1F7E1E0F0E0EC0FFD1FE00F10
:10490000F11F90820F5F1F4F0530110509F0AFCFE7
:104910004AE050E0BE016F5F7F4F80ED92E00E9461
:1049200089339C01892B49F08AE0FE013196A0ED84
:10493000B2E001900D928A95E1F70091DB0210E060
:1049400000591C4F232B09F450C081E08093AC0226
:104950000E949B159093AB028093AA02F12CE090E9
:104960004704EE2009F49EC01C861B86FE013D967E
:1049700083E0DF011D928A95E9F78091CB028A30AE
:1049800008F059C046EE53E1BE01655F7F4FC80194
:104990000E949F11882309F474C044E853E1BE01CA
:1049A000655F7F4FC8010E949F11882309F469C089
:1049B0001092CB028091DA0290E045E050E0BE0117
:1049C000655F7F4F80599C4F0E94893321E020937F
:1049D000B302892B09F048C0E12C8E2D8F296396F4
:1049E000ECE00C94E93280E077CFF090AC02FF204D
:1049F00009F4B4CFC090AA02D090AB020E949B15DC
:104A00008C199D09059708F4A9CF45E050E060EDA9
:104A100072E0C8010E948933892B59F085E0E0EDEE
:104A2000F2E0D80101900D928A95E1F71092AC0264
:104A300096CFF12CFBCFC090AD02D090AE020E9479
:104A40009B158C199D09843F914008F09BCF809164
:104A5000B302882309F2FE013B9685E0DF011D9237
:104A60008A95E9F71092B302A091DA02B0E0A0595A
:104A7000BC4F85E0FE013B9601900D928A95E1F7CF
:104A8000ACCF8091CB028F3F31F08F5F8093CB0210
:104A90008A3008F48FCF0E949B159093AE028093CA
:104AA000AD02D5CF85E0F801AEEBB2E001900D92FA
:104AB0008A95E1F78EEB92E00E94240A8093BD0272
:104AC0008090C3029090C402A090C502B090C6022C
:104AD0008091AF029091B002A091B102B091B20268
:104AE00088169906AA06BB0609F477CF8092AF0212
:104AF0009092B002A092B102B092B2020E94910BC9
:104B0000861A970AA80AB90A8092CC029092CD021E
:104B1000A092CE02B092CF0260CFA8E1B0E0E3E96C
:104B2000F5E20C94CB324B8B5C8B6D8B7E8B8F8B39
:104B3000988F91111092C003188A198A1A8A86E0F8
:104B4000FE017396DE011A9601900D928A95E1F7A7
:104B50008E858823D9F061E0CE010A960E94A410C8
:104B600061E0CE010A960E94A41061E0CE010A968F
:104B70000E94A4107C018F8520E5E2162CE7F20646
:104B800081F4882319F181E0809335010A851B8522
:104B90002C853D854E855F85688979898A89F5DC14
:104BA000B9C061E5E6166CE7F60621F4882371F0DA
:104BB000ABDDECCF92E5E9169CE7F90639F48823E2
:104BC00029F0809135018111F3CFDDCF60912E0165
:104BD00070912F01CC24CA94DC2C40E0242F30E0CB
:104BE000F901EE0FFF1FE60FF71F85919491E8166C
:104BF000F90609F46901892B11F04F5FEFCF10E03E
:104C0000AFEFCA16DA0609F44EC050913201109186
:104C10003501812F511180E0182F1170B0903301B0
:104C2000809134019F85992309F4F0C0112309F480
:104C3000EDC0B11017C021E030E00C2C01C0220FF4
:104C40000A94EAF7822B809334018091BE039091FD
:104C5000BF038639910530F486E990E09093BF0355
:104C60008093BE0381E090E002C0880F991F4A95AF
:104C7000E2F701972091340128171906A1F4C0909A
:104C80003504D0903604C114D10409F447C00E9401
:104C90009B158C199D098739910508F43FC081E067
:104CA0008093320111E08F85882309F410C111230C
:104CB00009F40DC10E949B1590933604809335042E
:104CC0008091C203883030F591E0980F9093C20331
:104CD00099E0FE013A96DE01119601900D929A95A7
:104CE000E1F7EDE08E9FC00111248D539C4F29E028
:104CF000FE013196DC0101900D922A95E1F72FEF2C
:104D00003FEFDC011A963C932E9319971C96FC9268
:104D1000EE921B976896EEE00C94E7328091330494
:104D20007090340440912E0150912F01982FF0E0A3
:104D3000E0E066246394871114C090933304EE522C
:104D4000F14009F4B0CF90E0FC01EE0FFF1FE55DEC
:104D5000FB4F11821082019683709927809334044F
:104D6000A2CF282F30E0F901EE0FFF1FE55DFB4FCA
:104D700060817181AEE2B1E0672B11F0B0E0A0E09C
:104D80006D917C911197812C00E0912CE92DF0E040
:104D9000EE0FFF1FE60FF71FC590D490C114D1048A
:104DA000E1F4882029F00915D0F0FD011097C9F42D
:104DB000F0E0E0E026C0CA14DB0409F4812E0F5FA6
:104DC000E02FF0E0EE0FFF1FE40FF51FA590B49069
:104DD000A114B10481F79394D9CF00E0F1CFEEE2B2
:104DE000F1E0648261E0EE32F60721F4909333043F
:104DF000182D59CF891305C0EA17FB0711F49F5FDF
:104E000093702F5F3F4F822F837095CF90E0B1104A
:104E100022C021E030E002C0220F331F4A95E2F7A2
:104E2000215031092817390739F4552309F44DC0A9
:104E300090E080E00E947E0C81E090E00C2C01C0AC
:104E4000880F0A94EAF78095909134018923809322
:104E500034011B2D28CFAC010C2C02C05595479571
:104E60000A94E2F79C012150310982239323892B74
:104E700041F540FF26C08091300190913101892B8E
:104E8000E9F087E0FE013196DF011D928A95E9F78E
:104E90000E949B15282F8B839C8384E08D838091B7
:104EA000300190913101782F8887998709811A8183
:104EB0003C8144E05E816F81892F67DB1092330172
:104EC000BBCFB42FB170BB2EB7CFB12EB5CF909161
:104ED000330480913404981729F023DC113009F44D
:104EE00019CF54CEBCDB10923604109235040E94C8
:104EF000A80CF4CFA6E0B0E0E0E8F7E20C94D532DD
:104F00000E949B158C018091A8029091A9028017A4
:104F1000910779F019821A820E949B15682F4981A6
:104F20005A81792F80E090E0F8DD1093A902009378
:104F3000A8022696E4E00C94F1321F921FB61F924D
:104F400011248F939F93AF93BF9380914F0481114E
:104F500013C08091500490915104A0915204B091DB
:104F600053044196A11DB11D8093500490935104A8
:104F7000A0935204B0935304BF91AF919F918F912E
:104F80001F901FBE1F901895CF93DF93EC010E94D6
:104F90009B158C1B9D0BDF91CF910895CDB7DEB78C
:104FA000AD970FB6F894DEBF0FBECDBF85B7806852
:104FB00085BF85B7806885BF84B7877F84BF0FB6FC
:104FC000F894A895809160008861809360001092A9
:104FD00060000FBE80E890E00FB6F8948093610007
:104FE000909361000FBE81E08093390181EF9CE0D6
:104FF00090934D0280934C020E943B0A0E94DC0A6F
:105000008091E20084608093E200789480915F0454
:105010008823A1F01091E9001F709091EC00892F76
:10502000817090FD80E8182B1092E9008091E800D3
:1050300083FD0E94F3151F701093E90082E084BD88
:1050400093E095BD9AEF97BD80936E001092CC02CD
:105050001092CD021092CE021092CF028091D80011
:1050600080618093D8002AE12A95F1F700C08091F1
:10507000D900182F117080FD04C00E943B0A1092C5
:105080005F04109347041093480410931801111102
:105090000E945F31809118018091180195E0811183
:1050A00090E09093DB0285E0891B8093DA0207E3AE
:1050B00012E06CE3E62E62E0F62ED8018D918D01B0
:1050C0008F3F11F00E94F30CE016F106B1F70CE3EC
:1050D00012E052E4E52E52E0F52EF80181918F01A5
:1050E0008F3F11F00E94F30CE016F106B1F78AE051
:1050F000E0E7F3E0DF01F82E1D92FA94E9F7E0ED26
:10510000F2E0DF011D928A95E9F790E080E00E94CD
:105110006836833E9E4F51F163EE7EEF90E080E073
:105120000E94873660E082E090E00E946D3681E068
:1051300090E09093DD028093DC0261E083E090E0F8
:105140000E946D3660E074E184E090E00E94873652
:1051500040E050E0BA018FE090E00E947F3640E0EE
:1051600050E0BA0183E190E00E947F3682E090E057
:105170000E9460368093E00284E090E00E946836EE
:105180009093DF028093DE0283E090E00E9460361D
:1051900090E00E944F10809147048111EAC082E0A4
:1051A0008093AC0380E88093B70329D76BE070E06D
:1051B00087EC96E00E941513882389F18091AC0357
:1051C00065E070E081FDD7C082EC96E00E94151387
:1051D000882329F16DE070E080EB96E00E941513C2
:1051E0008823E9F00E94910B6DA37EA38FA398A75B
:1051F000DC01CB01805A9541AF4FBF4F8093B8037C
:105200009093B903A093BA03B093BB030E94001319
:1052100081E08093BD038093BC031092AD03809125
:105220004704811102C00E94623110924203109221
:1052300043031092440310924503109246031092C8
:10524000470310924803109287030E94910B6093CA
:1052500088037093890380938A0390938B0381E082
:1052600080937A0310927B0310927C0310927D034B
:1052700010927E0310927F0310928003109281039C
:10528000109282031092830386E0809384038CE063
:105290008093850389E191E090934C0480934B04C3
:1052A00080E793E03AE0F32EF80EFDA643E0442EAB
:1052B000512C612C712C80915F0410E400E122E1FB
:1052C000E22E853009F48DC0B6DA01EE12E0A0E7D7
:1052D000B3E0F80191918D9142E0EB3EF40709F4BF
:1052E0008AC09817B9F33090470490E7C92E93E02D
:1052F000D92EE12CD601BD906D01F80181908F016E
:105300008B1431F18B24A12C99249394882D89211D
:10531000B1F03320A1F0A982EA820E949B159C8300
:105320008B83F1E0FD8391E08B2D892109F490E0DE
:105330009E8349815A816B817C818D81EEDBA394B0
:10534000990C86E0F82EAF10E1CFF8013197B082CA
:10535000E3942AE0E212CECF0E940C0D6093610329
:1053600070936203809363039093640331E03DA3E1
:1053700046C080E015CF8DEB96E028CF80915F048A
:10538000843029F10E94221310924F0428E130E06A
:105390000FB6F894A895209360000FBE109360009C
:1053A00083B7817F846083BF83B7816083BF789434
:1053B000889583B78E7F83BF0FB6F894A8958091A8
:1053C0006000886180936000109260000FBE33DA45
:1053D000E0E7F3E0819181118CC533E0EA37F30710
:1053E000C9F780915F04853009F4C8CF0E94CE15BB
:1053F0000E941B0C69CF981376CF7CDD1DA2809193
:105400004704882309F4F0C080913501882311F105
:10541000009135041091360401151105D9F00E9450
:105420009B15801B910B2091BE033091BF03281761
:10543000390780F49091330480913404981709F46B
:1054400034C16FD91092BF031092BE03109236047C
:10545000109235048090F6029090F702092C000C0F
:10546000AA08BB0810912301212F30E0E6EFF2E0FB
:1054700081E090E03296281739070CF01FC1C090E8
:10548000F202D090F302E090F402F090F5020E9454
:10549000910BDC01CB018C199D09AE09BF096C0190
:1054A0007D0199ECC916D104E104F10414F1809155
:1054B000F10290E0019669E170E00E940A33809366
:1054C000F102880F991FFC01EA50FD4F11821082F2
:1054D000812F183108F087E18F5F809323010E94AC
:1054E000910B6093F2027093F3028093F402909315
:1054F000F502A2E08A169104A104B1040CF4EAC0FA
:10550000A0E6BAEEA50194010E94613369A37AA3D3
:105510008BA39CA3B8EC1B9F90011124032E000CBD
:10552000440B550B2C0D3D1D4E1D5F1DA5E0B0E03D
:105530000E94613369A77AA78BA79CA769A17AA16A
:105540008BA19CA129A53AA54BA55CA50E941D3362
:1055500069017A01E1EFCE16D104E104F1042CF0E7
:10556000B0EFCB2ED12CE12CF12C8090ED0290905D
:10557000EE02A090EF02B090F0020E94910B9B010E
:10558000AC01281939094A095B0949015A0135E674
:1055900083169104A104B10484F00E94910B6093DE
:1055A000ED027093EE028093EF029093F0028091EF
:1055B00060038093EC02C092EB021091EC02A09188
:1055C000EB02A11BBB0BA50194010E946B3369A3E5
:1055D0007AA38BA39CA324E630E040E050E00E9435
:1055E0003F33120F109360031091BD03112309F490
:1055F000F8C0C090AE03D090AF030E949B158C19E9
:105600009D09C29708F4C3C00E949B159093AF03F5
:105610008093AE0385EB94E09093B6068093B50635
:1056200080914704882309F4FAC1109160030E9415
:10563000910B209148031A3508F450C0211151C034
:1056400041E04093480340934203609343037093C7
:105650004403809345039093460328EE33E040E0F3
:1056600050E0EBD7CA01B901A3019201E6D76093DC
:1056700047038090430390904403A0904503B0906B
:1056800046030E94910B69A37AA38BA39CA3DC0120
:10569000CB0188199909AA09BB09893B9B40A1053F
:1056A000B10518F11092420320C00E942F231092DE
:1056B0003604109235040E94A80CCCCE4081518152
:1056C000052E000C660B770B840E951EA61EB71ECA
:1056D0000196D0CEC12CD12C760147CF211110924A
:1056E0004803809142038111C4CF8091400390917F
:1056F00041030E94801067E871E0893038F4E82F98
:10570000F0E0E05BF84CD7C76BE471E088E293E02F
:105710000E949F3360E088E293E00E94B41281E02F
:105720000E94CE12809160031F928F938DE891E0CA
:105730009F938F938E010F5F1F4F1F930F930E94B4
:10574000D33360E0C8010E94B41281E00E94CE12FF
:105750000F900F900F900F900F900F908091420339
:10576000882309F444C160E086EB91E00E94B41202
:10577000E0914703F0E0EE0FFF1FEE5BFD4F61E0AD
:10578000808191810E94B41281E00E94CE128091AA
:10579000B3049091B404892B09F0C3C28091BC0377
:1057A0008823F9F00E94910B69A37AA38BA39CA391
:1057B0008091B8039091B903A091BA03B091BB0353
:1057C00029A13AA14BA15CA1281B390B4A0B5B0B09
:1057D000DA01C9018F3F9F4FAF4FBF4710F40E94BE
:1057E0002213FDA0F1100E943C1386E0EEE3F4E0EA
:1057F000DE01119601900D928A95E1F7A0903F0489
:105800001091400400914104B0904204E0904304A0
:1058100010924004109241041092420410924304EA
:10582000812F802B09F447C0C0903C04D0903D04E8
:105830000E949B159C012C193D09909137049923D6
:1058400009F484C325313105B0F19F3F19F09F5F02
:1058500090933704112359F00E94500C9FEF1116BA
:105860000CF491E0899F802D112480934004002343
:1058700059F00E94500C91E010160CF09FEF899F98
:10588000802D11248093410480914004882399F055
:10589000D0904104DD2079F00E94700C882309F437
:1058A00018C3809340048D2D0E94700C882309F446
:1058B00014C3809341048E2D8B2909F447C0C090F6
:1058C0003A04D0903B040E949B159C012C193D0981
:1058D00090913804992309F434C321353105B0F18E
:1058E0009F3F19F09F5F90933804BB2059F00E94AE
:1058F0002E0C9FEF1B140CF491E0899F802D112436
:1059000080934204EE2059F00E942E0C91E01E1468
:105910000CF09FEF899F802D112480934304809188
:105920004204882399F0D0904304DD2079F00E944E
:10593000700C882309F4D5C2809342048D2D0E94F7
:10594000700C882309F4D1C28093430480913F04F2
:105950008A1119C080914004882311F0181313C0D4
:1059600020914104222311F020130DC09091430493
:10597000992311F09E1107C030914204311103C0E8
:10598000822B892B11F00E94A715AA821B830C83FE
:10599000BD82EE8286E0FE013196AEE3B4E0019076
:1059A0000D928A95E1F70E941B0C9091B003891724
:1059B00009F481CC8093B0030E94910B7CCC62E50A
:1059C00071E0A4CE68E571E0A1CE60E671E09ECE04
:1059D00064E671E09BCE6AE671E098CE63E771E021
:1059E00095CE6BE771E092CE61E871E08FCE809149
:1059F0005E0390915F03181619063CF4885B9C4F78
:105A0000DC018C918093240106C0892B21F48091C4
:105A10005C038032B9F760E084E291E0B3CE80901D
:105A2000880390908903A0908A03B0908B030E9412
:105A3000910B69A37AA38BA39CA3DC01CB018819EA
:105A40009909AA09BB0981369A4EA105B10590F0C2
:105A50008091870390E00196837099278093870354
:105A60000E94910B609388037093890380938A034B
:105A700090938B030091870380912601033009F0F6
:105A800056C0833009F084C0009160030E94910BDE
:105A9000462F572FBC01C0906F03809061039090F8
:105AA0006203A0906303B090640385E6282E83E030
:105AB000382E8AE793E0E0E7F3E0E12CD190D101C2
:105AC0002D911D012D1508F4E12E91012150310970
:105AD000D901DC928E179F0789F7C0120BC04819B5
